:100000000C942A000C9447000C9447000C94470071
:100010000C9447000C9447000C9447000C94D52492
:100020000C9447000C9447000C9447000C94470034
:100030000C9447000C9447000C9447000C94470024
:100040000C9447000C9447000C9447000C94470014
:100050000C94470011241FBECFE5D8E0DEBFCDBF12
:1000600012E0A0E6B0E0E6EFF4E702C005900D92E2
:10007000A03FB107D9F713E0A0EFB2E001C01D9295
:10008000AD30B107E1F70E9469170C94793A0C94EE
:100090000000EF92FF920F931F937B018C0120E0F1
:1000A00030E040E05FE40E94F50388238CF0C80153
:1000B000B70120E030E040E05FE40E94C1010E940F
:1000C000B3049B01AC01205030404040504806C072
:1000D000C801B7010E94B3049B01AC01B901CA0178
:1000E0001F910F91FF90EF900895A0E0B0E0EBE733
:1000F000F0E00C94A137DC012B01FA019C919230C5
:1001000008F439C1EB018881823008F433C194309E
:1001100069F4843009F02FC111969C91119789815F
:10012000981709F428C1A1ECB1E025C1843009F485
:1001300021C18230A9F4923009F01DC19A01AD01AC
:1001400088E0EA010990AE01E90109929E0181501F
:10015000C1F7E201898111969C918923818308C1AD
:10016000923009F407C112962D903C901397EB0141
:100170008A819B811496AD90BD90CD90DC901797AD
:10018000EC80FD800E811F819101281B390BB90184
:1001900037FF04C066277727621B730B6032710537
:1001A0000CF061C0121613066CF537014801062EDB
:1001B00004C096948794779467940A94D2F721E0C8
:1001C00030E040E050E004C0220F331F441F551FB1
:1001D0006A95D2F721503040404050402E213F21B7
:1001E00040235123211531054105510521F021E01E
:1001F00030E040E050E079018A01E628F72808293C
:1002000019293CC0232BD1F1260E371E350146019A
:10021000062E04C096948794779467940A94D2F734
:1002200021E030E040E050E004C0220F331F441FC3
:10023000551F6A95D2F721503040404050402A2146
:100240003B214C215D21211531054105510521F04E
:1002500021E030E040E050E059016A01A628B728CB
:10026000C828D9280BC0821593052CF01C01AA249C
:10027000BB24650103C0EE24FF24870111969C91E5
:10028000D20111968C91981709F445C0992339F041
:10029000A80197012A193B094C095D0906C0A6016E
:1002A00095012E193F09400B510B57FD08C01182D3
:1002B0003382228224833583468357831DC081E0A5
:1002C00081833382228288279927DC01821B930B4A
:1002D000A40BB50B84839583A683B7830DC0220F2F
:1002E000331F441F551F24833583468357838281E0
:1002F000938101979383828324813581468157813D
:10030000DA01C9010197A109B1098F5F9F4FAF4F72
:10031000BF4328F30BC0918333822282EA0CFB1C7B
:100320000C1D1D1DE482F5820683178383E0808304
:10033000248135814681578157FF1AC0C901AA27F8
:1003400097FDA095BA2F81709070A070B0705695EF
:10035000479537952795822B932BA42BB52B848318
:100360009583A683B7838281938101969383828349
:10037000DF0101C0D201CD01CDB7DEB7E2E10C94BF
:10038000BD37A0E2B0E0E7ECF1E00C94AD37698353
:100390007A838B839C832D833E834F835887E9E048
:1003A000EE2EF12CEC0EFD1ECE010196B7010E943F
:1003B000A4068E010F5E1F4FCE010596B8010E9464
:1003C000A4068A8991E089278A8BC701B801AE010A
:1003D000475E5F4F0E9475000E94CF05A096E6E041
:1003E0000C94C937A0E2B0E0E8EFF1E00C94AD372F
:1003F00069837A838B839C832D833E834F835887C5
:10040000F9E0EF2EF12CEC0EFD1ECE010196B701A6
:100410000E94A4068E010F5E1F4FCE010596B80103
:100420000E94A406C701B801AE01475E5F4F0E945B
:1004300075000E94CF05A096E6E00C94C937A0E2B3
:10044000B0E0E5E2F2E00C94A13769837A838B8314
:100450009C832D833E834F835887CE010196BE0136
:10046000675F7F4F0E94A406CE010596BE016F5EB6
:100470007F4F0E94A4069985923088F08989823046
:10048000C8F0943019F4823051F404C0843029F457
:10049000923081F481EC91E0C6C0923049F420E0C2
:1004A0009A858A89981321E02A87CE010996BBC0D4
:1004B000823049F420E09A858A89981321E02A8BBA
:1004C000CE014196B0C02D843E844F8458886D88FB
:1004D0007E888F88988CEE24FF248701AA24BB2471
:1004E000650140E050E060E070E0E0E0F0E0C10174
:1004F00081709070892BE9F0E60CF71C081D191D1E
:100500009A01AB012A0D3B1D4C1D5D1D80E090E062
:10051000A0E0B0E0E614F7040805190520F481E036
:1005200090E0A0E0B0E0BA01A901480F591F6A1F8E
:100530007B1FAA0CBB1CCC1CDD1C97FE08C081E0F5
:1005400090E0A0E0B0E0A82AB92ACA2ADB2A3196B6
:10055000E032F10549F0660C771C881C991C569412
:10056000479437942794C3CFFA85EA892B893C892D
:100570008B859C85280F391F2E5F3F4F17C0CA01FE
:1005800081709070892B61F016950795F794E79428
:1005900080E090E0A0E0B0E8E82AF92A0A2B1B2BC3
:1005A00076956795579547952F5F3F4F77FDE7CF36
:1005B0000CC0440F551F661F771F17FD4160EE0CDE
:1005C000FF1C001F111F21503040403090E05907A0
:1005D00090E0690790E4790760F32B8F3C8FDB0193
:1005E000CA018F779070A070B07080349105A1051A
:1005F000B10561F447FD0AC0E114F10401051105DC
:1006000029F0405C5F4F6F4F7F4F40781A8EFE1786
:1006100011F081E08A8F4D8F5E8F6F8F78A383E01A
:10062000898FCE0149960E94CF05A096E2E10C94F5
:10063000BD37A8E1B0E0EFE1F3E00C94A93769839E
:100640007A838B839C832D833E834F835887B9E0C5
:10065000EB2EF12CEC0EFD1ECE010196B7010E948F
:10066000A4068E010F5E1F4FCE010596B8010E94B1
:10067000A4062985223008F47EC03989323010F46E
:10068000B8017CC08A859A8989278A87243011F02D
:10069000223031F4231709F06EC061EC71E06EC0B6
:1006A000343039F41D861E861F86188A1C861B86E8
:1006B00004C0323021F484E08987B7015FC02B8504
:1006C0003C858B899C89281B390B3C872B87ED84C3
:1006D000FE840F851889AD88BE88CF88D88CEA142F
:1006E000FB040C051D0540F4EE0CFF1C001F111F40
:1006F000215030403C872B8720E030E040E050E044
:1007000080E090E0A0E0B0E460E070E0EA14FB0478
:100710000C051D0540F0282B392B4A2B5B2BEA18C2
:10072000FB080C091D09B695A79597958795EE0CC2
:10073000FF1C001F111F6F5F7F4F6F31710531F775
:10074000DA01C9018F779070A070B0708034910584
:10075000A105B10561F427FD0AC0E114F10401050A
:10076000110529F0205C3F4F4F4F5F4F20782D87B8
:100770003E874F87588BBE01675F7F4FCB010E943A
:10078000CF056896EAE00C94C537A8E1B0E0EBEC41
:10079000F3E00C94AD3769837A838B839C832D833C
:1007A0003E834F83588789E0E82EF12CEC0EFD1E26
:1007B000CE010196B7010E94A4068E010F5E1F4F65
:1007C000CE010596B8010E94A4068985823040F0CA
:1007D0008989823028F0C701B8010E941C0701C036
:1007E0008FEF6896E6E00C94C937A8E1B0E0EBEF34
:1007F000F3E00C94AD3769837A838B839C832D83DC
:100800003E834F83588789E0E82EF12CEC0EFD1EC5
:10081000CE010196B7010E94A4068E010F5E1F4F04
:10082000CE010596B8010E94A4068985823040F069
:100830008989823028F0C701B8010E941C0701C0D5
:100840008FEF6896E6E00C94C937A8E1B0E0EBE2E0
:10085000F4E00C94AD3769837A838B839C832D837A
:100860003E834F83588789E0E82EF12CEC0EFD1E65
:10087000CE010196B7010E94A4068E010F5E1F4FA4
:10088000CE010596B8010E94A4068985823040F009
:100890008989823028F0C701B8010E941C0701C075
:1008A00081E06896E6E00C94C937A8E0B0E0EBE59B
:1008B000F4E00C94AA379B01AC0183E08983DA0150
:1008C000C9018827B7FD83959927AA27BB27B82E8A
:1008D000211531054105510519F482E089833AC09B
:1008E0008823A9F0203080E0380780E0480780E8BE
:1008F000580729F460E070E080E09FEC30C0EE24FF
:10090000FF248701E21AF30A040B150B02C07901D8
:100910008A018EE1C82ED12CDC82CB82ED82FE8250
:100920000F831887C801B7010E9480050197181628
:10093000190684F4082E04C0EE0CFF1C001F111FC2
:100940000A94D2F7ED82FE820F831887C81AD90A5B
:10095000DC82CB82BA82CE0101960E94CF05289616
:10096000E9E00C94C637ACE0B0E0E9EBF4E00C94BD
:10097000B13769837A838B839C83CE010196BE0154
:100980006B5F7F4F0E94A4068D81823061F18230BF
:1009900050F1843021F48E81882351F12EC02F81B3
:1009A000388537FD20C06E812F3131051CF066235C
:1009B000F9F023C08EE190E0821B930B29853A85E4
:1009C0004B855C8504C056954795379527958A9544
:1009D000D2F76623B1F050954095309521953F4F61
:1009E0004F4F5F4F0EC020E030E040E050E009C0C4
:1009F0002FEF3FEF4FEF5FE704C020E030E040E033
:100A000050E8B901CA012C96E2E00C94CD37A8E079
:100A1000B0E0EDE0F5E00C94A9377B018C016115A5
:100A200071058105910519F482E0898360C083E036
:100A300089838EE1C82ED12CDC82CB82ED82FE82AE
:100A40000F831887C801B7010E948005FC01319708
:100A5000F7FF3BC0222733272E1B3F0B57016801AE
:100A6000022E04C0D694C794B794A7940A94D2F7E0
:100A700040E050E060E070E081E090E0A0E0B0E0B5
:100A800004C0880F991FAA1FBB1F2A95D2F7019790
:100A9000A109B1098E219F21A023B1230097A105AF
:100AA000B10521F041E050E060E070E04A295B29A7
:100AB0006C297D294D835E836F8378878EE190E07A
:100AC0008E1B9F0B9C838B8312C0309781F00E2E60
:100AD00004C0EE0CFF1C001F111F0A94D2F7ED8218
:100AE000FE820F831887CE1ADF0ADC82CB821A823D
:100AF000CE0101960E94CF052896EAE00C94C537F6
:100B0000EF92FF920F931F937B018C0180E0E81618
:100B100080E0F80681E0080780E0180788F48FEF8E
:100B2000E816F1040105110531F028F088E090E0A5
:100B3000A0E0B0E017C080E090E0A0E0B0E012C01C
:100B400080E0E81680E0F80680E0080781E01807FA
:100B500028F088E190E0A0E0B0E004C080E190E0FF
:100B6000A0E0B0E020E230E040E050E0281B390B8C
:100B70004A0B5B0B04C016950795F794E7948A958A
:100B8000D2F7F701E753FE4F8081281B3109410955
:100B90005109C9011F910F91FF90EF900895DF92C5
:100BA000EF92FF920F931F93FC01E480F580068182
:100BB0001781D1808081823048F480E090E0A0E10C
:100BC000B0E0E82AF92A0A2B1B2BA5C0843009F4CF
:100BD0009FC0823021F4EE24FF24870105C0E11478
:100BE000F1040105110519F4E0E0F0E096C062811E
:100BF00073819FEF623879070CF05BC022E83FEF0A
:100C0000261B370B2A3131052CF020E030E040E084
:100C100050E02AC0B801A701022E04C0769567955E
:100C2000579547950A94D2F781E090E0A0E0B0E0B4
:100C300004C0880F991FAA1FBB1F2A95D2F70197DE
:100C4000A109B1098E219F21A023B1230097A105FD
:100C5000B10521F081E090E0A0E0B0E09A01AB01A5
:100C6000282B392B4A2B5B2BDA01C9018F77907027
:100C7000A070B07080349105A105B10539F427FF4B
:100C800009C0205C3F4F4F4F5F4F04C0215C3F4F76
:100C90004F4F5F4FE0E0F0E02030A0E03A07A0E0E7
:100CA0004A07A0E45A0710F0E1E0F0E079018A0178
:100CB00027C06038710564F5FB01E158FF4FD8018A
:100CC000C7018F779070A070B07080349105A10536
:100CD000B10539F4E7FE0DC080E490E0A0E0B0E09B
:100CE00004C08FE390E0A0E0B0E0E80EF91E0A1F18
:100CF0001B1F17FF05C016950795F794E7943196CB
:100D000087E016950795F794E7948A95D1F705C083
:100D1000EE24FF248701EFEFF0E06E2F6795662742
:100D20006795902F9F77D794DD24D7948E2F869543
:100D3000492F462B582F5D29B701CA011F910F91EA
:100D4000FF90EF90DF900895FC01DB01408151811D
:100D50002281622F6F7770E0221F2227221F93814A
:100D6000892F880F822B282F30E0991F9927991FF0
:100D700011969C93119721153105A9F5411551053F
:100D80006105710511F482E037C082E89FEF139688
:100D90009C938E9312979A01AB0167E0220F331F49
:100DA000441F551F6A95D1F783E08C930DC0220F25
:100DB000331F441F551F12968D919C9113970197D5
:100DC00013969C938E931297203080E0380780E032
:100DD000480780E4580758F314962D933D934D939C
:100DE0005C93179708952F3F310579F4411551050C
:100DF0006105710519F484E08C93089564FF03C0C4
:100E000081E08C9312C01C9210C02F573040139673
:100E10003C932E93129783E08C9387E0440F551FE9
:100E2000661F771F8A95D1F7706414964D935D9372
:100E30006D937C93179708951F93DC01FB019C91A0
:100E4000923008F447C08081823008F443C0943067
:100E500051F411961C91843099F58181682F70E0CE
:100E6000611B71093FC0843021F0923031F482302F
:100E7000B9F18181882389F12DC011961C911197B8
:100E80008230F1F081811817D9F412962D913C919E
:100E90001397828193818217930794F0281739075B
:100EA000BCF014968D919D910D90BC91A02D248144
:100EB000358146815781281739074A075B0718F49F
:100EC000112341F00AC082179307A407B50740F425
:100ED000112319F061E070E005C06FEF7FEF02C0F1
:100EE00060E070E0CB011F910895DF93CF93CDB701
:100EF000DEB786E08093C9028EE18093CA02109229
:100F0000CB021092F002CF91DF910895DF93CF933F
:100F100000D0CDB7DEB789836A8389818093C90207
:100F20008A818093CA020F900F90CF91DF9108952C
:100F3000DF93CF93CDB7DEB781E08093CB021092E1
:100F4000F002CF91DF910895DF93CF93CDB7DEB755
:100F50001092CB021092F002CF91DF910895DF93AF
:100F6000CF93CDB7DEB71092F002CF91DF91089505
:100F7000DF93CF9300D000D0CDB7DEB78091CB0206
:100F800091E08927882321F48091F002882311F0D1
:100F90001C8212C0CE0101960E94AF308B819A81D3
:100FA000692F0E944A08882331F081E08093F00283
:100FB00081E08C8301C01C828C810F900F900F9078
:100FC0000F90CF91DF910895DF93CF93CDB7DEB728
:100FD0008091CB02CF91DF910895DF93CF93CDB76E
:100FE000DEB72C970FB6F894DEBF0FBECDBFCE0193
:100FF00001969D838C83E9ECF2E0FF83EE83F3E0BE
:10100000F887EE81FF8100808E819F8101969F830A
:101010008E83EC81FD8100828C819D8101969D8370
:101020008C83988591509887E885EE2351F720E0CE
:10103000298180E08A8190E09B8129878A879B872C
:1010400089859A85AB85BC85BC01CD012C960FB6F0
:10105000F894DEBF0FBECDBFCF91DF910895DF932F
:10106000CF93CDB7DEB760970FB6F894DEBF0FBE53
:10107000CDBFCE0101960E946B08CE0101960E9461
:10108000881460960FB6F894DEBF0FBECDBFCF9127
:10109000DF910895DF93CF9300D000D0CDB7DEB7B6
:1010A00089836A839091C9028981981751F490913C
:1010B000CA028A81981729F481E090E09C838B838F
:1010C00002C01C821B828B810F900F900F900F909B
:1010D000CF91DF910895DF93CF9300D0CDB7DEB7E6
:1010E0009A8389838091C902282F30E08091CA02B7
:1010F000482F50E08DB79EB708970FB6F8949EBF63
:101100000FBE8DBFEDB7FEB7319689819A8191836D
:10111000808380E690E093838283358324835783A2
:1011200046830E94D8378DB79EB708960FB6F894BD
:101130009EBF0FBE8DBF0F900F90CF91DF9108958E
:10114000DF93CF930F92CDB7DEB7A7E3B0E0E7E32D
:10115000F0E0808183608C93A7E3B0E0E7E3F0E008
:1011600080818F7C8C93A8E3B0E0E8E3F0E080819D
:1011700080638C93198218C08981882F90E0FC01CC
:10118000EF50FD4F10828981882F90E0FC01EB50D9
:10119000FD4F10828981882F90E0FC01E750FD4FC0
:1011A000108289818F5F89838981843028F30F9031
:1011B000CF91DF910895DF93CF93CDB7DEB76D97D1
:1011C0000FB6F894DEBF0FBECDBF1B8E1A8E18C0AF
:1011D0008A8D282F30E08A8D882F90E0FC01EF5017
:1011E000FD4F8081F901EB50FD4F80838A8D882F60
:1011F00090E0FC01EF50FD4F10828A8D8F5F8A8F47
:101200008A8D843028F31D8E1DC1A8E3B0E0E8E389
:10121000F0E0808183608C93A8E3B0E0E8E3F0E045
:101220008081482F8D8D282F30E081E090E002C032
:10123000880F991F2A95E2F7809584238C9380E08C
:1012400090E0A0E2B1E48D8B9E8BAF8BB88F6D895F
:101250007E898F89988D2BEA3AEA4AE250E40E940F
:101260001F02DC01CB01898B9A8BAB8BBC8B69890C
:101270007A898B899C8920E030E040E85FE30E9416
:10128000250488231CF481E0888B91C069897A89C0
:101290008B899C8920E030E04FE753E40E94C5032E
:1012A00018160CF07BC06D897E898F89988D20E09F
:1012B00030E04AE754E40E941903DC01CB018C873B
:1012C0009D87AE87BF876C857D858E859F8520E055
:1012D00030E04AEF54E40E941F02DC01CB01888712
:1012E0009987AA87BB87688579858A859B8520E051
:1012F00030E040E85FE30E94250488232CF481E07D
:1013000090E09F838E833FC0688579858A859B8521
:1013100020E03FEF4FE757E40E94C50318164CF555
:101320006C857D858E859F8520E030E040E251E42C
:101330000E941F02DC01CB01BC01CD010E944900CB
:10134000DC01CB019F838E830FC088EC90E09D83EE
:101350008C838C819D810197F1F79D838C838E8195
:101360009F8101979F838E838E819F81009769F76C
:1013700024C0688579858A859B850E944900DC01A7
:10138000CB019F838E838E819F819B838A838A81F9
:101390009B810197F1F79B838A830FC069897A89C2
:1013A0008B899C890E944900DC01CB01888B88894C
:1013B000898389818A95F1F789831C8E3CC0E6E395
:1013C000F0E08081282F30E08C8D882F90E004960B
:1013D000A90102C0559547958A95E2F7CA01817027
:1013E0009070198E009711F481E0898F898D882380
:1013F000E1F08B8D8430C8F48B8D882F90E0FC0158
:10140000EF50FD4F81E080838B8D882F90E0FC01B1
:10141000EB50FD4F8081882341F48B8D882F90E025
:10142000FC01E750FD4F81E080838B8D8F5F8B8FB8
:101430008C8D8F5F8C8F8C8D823008F4C0CF8D8D1A
:101440008F5F8D8F8D8D823008F4DFCE6D960FB655
:10145000F894DEBF0FBECDBFCF91DF910895DF932B
:10146000CF9300D000D0CDB7DEB789838981843097
:10147000E0F48981882F90E0FC01EF50FD4F8081DE
:10148000813071F48981882F90E0FC01EB50FD4F91
:101490008081882329F481E090E09B838A8302C0C5
:1014A0001B821A829A819C8301C01C828C810F90BE
:1014B0000F900F900F90CF91DF910895DF93CF930E
:1014C00000D00F92CDB7DEB789838981843080F454
:1014D0008981882F90E0FC01E750FD4F80818B834C
:1014E0008B81882311F081E08B838B818A8301C0FB
:1014F0001A828A810F900F900F90CF91DF910895FB
:10150000DF93CF930F92CDB7DEB789838981843083
:1015100038F48981882F90E0FC01E750FD4F10825C
:101520000F90CF91DF910895DF93CF9300D0CDB787
:10153000DEB719820BC089810E942F0A882319F017
:1015400089818A8308C089818F5F898389818430FA
:1015500090F38FEF8A838A810F900F90CF91DF9164
:101560000895DF93CF9300D0CDB7DEB7898389810B
:10157000843048F48981882F90E0FC01EF50FD4FC2
:1015800080818A8301C01A828A810F900F90CF9147
:10159000DF910895DF93CF93CDB7DEB7AAE3B0E034
:1015A000EAE3F0E0808181608C930E94E80ACF91A9
:1015B000DF910895DF93CF93CDB7DEB7ABE3B0E013
:1015C000EBE3F0E0808181608C93CF91DF9108950F
:1015D000DF93CF93CDB7DEB7ABE3B0E0EBE3F0E062
:1015E00080818E7F8C93CF91DF910895DF93CF938D
:1015F000CDB7DEB760970FB6F894DEBF0FBECDBF94
:10160000988B8F870E94DA0A8F859889CC01A0E099
:10161000B0E0BC01CD010E940705DC01CB018B8746
:101620009C87AD87BE876B857C858D859E8520E0F8
:1016300030E04AEF54E40E941F02DC01CB018F83AB
:101640009887A987BA876F81788589859A8520E0F0
:1016500030E040E85FE30E94250488232CF481E019
:1016600090E09E838D833FC06F81788589859A85C0
:1016700020E03FEF4FE757E40E94C50318164CF5F2
:101680006B857C858D859E8520E030E040E251E4CD
:101690000E941F02DC01CB01BC01CD010E94490068
:1016A000DC01CB019E838D830FC088EC90E09C838E
:1016B0008B838B819C810197F1F79C838B838D8138
:1016C0009E8101979E838D838D819E81009769F70E
:1016D00014C06F81788589859A850E944900DC0154
:1016E000CB019E838D838D819E819A83898389819D
:1016F0009A810197F1F79A8389830E94E80A60969C
:101700000FB6F894DEBF0FBECDBFCF91DF91089525
:10171000DF93CF93CDB7DEB7E8970FB6F894DEBF6F
:101720000FBECDBF9EAB8DAB78AF6FAB2DA93EA9E1
:101730008FA998ADAC01249FC001259F900D349FC7
:10174000900D112428EE33E0B9010E943D37CB0102
:101750009CAB8BAB1AAA19AAA7C10E94DA0A8DA961
:101760009EA99C0140E050E080E291EAA7E0B0E051
:10177000BC01CD010E946437DA01C901BC01CD0171
:101780000E945504DC01CB018DA79EA7AFA7B8AB83
:101790006DA57EA58FA598A92BEA3AEA4AE250E406
:1017A0000E941F02DC01CB0189A79AA7ABA7BCA7A7
:1017B00069A57AA58BA59CA520E030E040E85FE311
:1017C0000E94250488231CF481E088A791C069A5A4
:1017D0007AA58BA59CA520E030E04FE753E40E945A
:1017E000C50318160CF07BC06DA57EA58FA598A922
:1017F00020E030E04AE754E40E941903DC01CB0109
:101800008CA39DA3AEA3BFA36CA17DA18EA19FA11C
:1018100020E030E04AEF54E40E941F02DC01CB01DB
:1018200088A399A3AAA3BBA368A179A18AA19BA11C
:1018300020E030E040E85FE30E94250488232CF498
:1018400081E090E09F8F8E8F3FC068A179A18AA12F
:101850009BA120E03FEF4FE757E40E94C503181615
:101860004CF56CA17DA18EA19FA120E030E040E26B
:1018700051E40E941F02DC01CB01BC01CD010E949A
:101880004900DC01CB019F8F8E8F0FC088EC90E068
:101890009D8F8C8F8C8D9D8D0197F1F79D8F8C8FF7
:1018A0008E8D9F8D01979F8F8E8F8E8D9F8D009730
:1018B00069F724C068A179A18AA19BA10E9449006F
:1018C000DC01CB019F8F8E8F8E8D9F8D9B8F8A8F9A
:1018D0008A8D9B8D0197F1F79B8F8A8F0FC069A529
:1018E0007AA58BA59CA50E944900DC01CB0188A7A5
:1018F00088A5898F898D8A95F1F7898F0E94E80ADA
:101900008DA99EA99C0140E050E080E291EAA7E009
:10191000B0E0BC01CD010E946437DA01C901BC010D
:10192000CD010E945504DC01CB018D8B9E8BAF8BCA
:10193000B88F6D897E898F89988D2BEA3AEA4AE2C1
:1019400050E40E941F02DC01CB01898B9A8BAB8B88
:10195000BC8B69897A898B899C8920E030E040E8DA
:101960005FE30E94250488231CF481E0888B91C0EA
:1019700069897A898B899C8920E030E04FE753E4BC
:101980000E94C50318160CF07BC06D897E898F8973
:10199000988D20E030E04AE754E40E941903DC010E
:1019A000CB018C879D87AE87BF876C857D858E85B3
:1019B0009F8520E030E04AEF54E40E941F02DC01E2
:1019C000CB0188879987AA87BB87688579858A85AF
:1019D0009B8520E030E040E85FE30E9425048823F7
:1019E0002CF481E090E09F838E833FC068857985E9
:1019F0008A859B8520E03FEF4FE757E40E94C503AF
:101A000018164CF56C857D858E859F8520E030E02D
:101A100040E251E40E941F02DC01CB01BC01CD0178
:101A20000E944900DC01CB019F838E830FC088ECAC
:101A300090E09D838C838C819D810197F1F79D833C
:101A40008C838E819F8101979F838E838E819F815E
:101A5000009769F724C0688579858A859B850E94EF
:101A60004900DC01CB019F838E838E819F819B8304
:101A70008A838A819B810197F1F79B838A830FC0B8
:101A800069897A898B899C890E944900DC01CB0194
:101A9000888B8889898389818A95F1F7898389A9C7
:101AA0009AA901969AAB89AB29A93AA98BA99CA9B5
:101AB0002817390708F451CEE8960FB6F894DEBF20
:101AC0000FBECDBFCF91DF910895DF93CF93CDB7F8
:101AD000DEB71092FE021092FD02109200031092E7
:101AE000FF0210920103CF91DF910895DF93CF930E
:101AF00000D0CDB7DEB79A83898389819A8190938C
:101B0000FE028093FD0289819A8190930003809365
:101B1000FF020F900F90CF91DF910895DF93CF9345
:101B2000CDB7DEB780910103882349F48091FD028F
:101B30009091FE02009719F081E080930103CF910C
:101B4000DF910895DF93CF93CDB7DEB78091010386
:101B5000813011F410920103CF91DF910895DF934A
:101B6000CF93CDB7DEB78091FD029091FE029093A6
:101B700000038093FF0210920103CF91DF9108953B
:101B8000DF93CF93CDB7DEB780910103813011F49D
:101B90000E94150ECF91DF910895DF93CF930F929E
:101BA000CDB7DEB7809101031982813011F481E055
:101BB000898389810F90CF91DF910895DF93CF932F
:101BC0000F92CDB7DEB7809101031982823011F4F4
:101BD00081E0898389810F90CF91DF910895DF9310
:101BE000CF93CDB7DEB78091FF0290910003CF91E4
:101BF000DF910895DF93CF93CDB7DEB760970FB62F
:101C0000F894DEBF0FBECDBFCE0101960E94380E04
:101C1000CE0101960E94881460960FB6F894DEBF3C
:101C20000FBECDBFCF91DF910895DF93CF93CDB796
:101C3000DEB78091FF02909100030097B1F0809190
:101C4000FF02909100030197909300038093FF029D
:101C50008091FF0290910003009739F482E0809315
:101C6000010388EE93E00E94F60ACF91DF91089578
:101C7000DF93CF9300D000D0CDB7DEB79C838B83AA
:101C80000E94740E8A830E94850E89838A81282F80
:101C900030E08981482F50E08DB79EB708970FB686
:101CA000F8949EBF0FBE8DBFEDB7FEB731968B8106
:101CB0009C81918380838AE690E09383828335833D
:101CC0002483578346830E94D8378DB79EB70896E2
:101CD0000FB6F8949EBF0FBE8DBF0F900F900F9060
:101CE0000F90CF91DF910895DF93CF93CDB7DEB7FB
:101CF0008091FF02909100032CE330E0B9010E9433
:101D00003D37CB01CF91DF910895DF93CF93CDB7CE
:101D1000DEB78091FF02909100032CE330E0B9011F
:101D20000E943D37CF91DF9108950F931F93DF936A
:101D3000CF93CDB7DEB7CE57D0400FB6F894DEBF05
:101D40000FBECDBFA1E3B0E0E1E3F0E08081876F9B
:101D50008C93FE01E558FF4F80E090E0A8E4B2E4E8
:101D600080839183A283B3838E0109581F4FFE01A4
:101D7000E558FF4F608171818281938120E030E0DE
:101D80004AEF54E40E941F02DC01CB01F80180837A
:101D90009183A283B383FE01E958FF4F6081718173
:101DA0008281938120E030E040E85FE30E942504D7
:101DB000882344F4FE01EB58FF4F81E090E09183CB
:101DC000808364C0FE01E958FF4F60817181828188
:101DD000938120E03FEF4FE757E40E94C5031816B8
:101DE0000CF043C0FE01E558FF4F60817181828194
:101DF000938120E030E040E251E40E941F02DC01C8
:101E0000CB018E010B581F4FBC01CD010E94490030
:101E1000DC01CB01F801918380831FC0FE01ED58E6
:101E2000FF4F88EC90E091838083FE01ED58FF4FD7
:101E3000808191810197F1F7FE01ED58FF4F918369
:101E40008083DE01AB58BF4FFE01EB58FF4F80810E
:101E50009181019711969C938E93FE01EB58FF4F51
:101E6000808191810097D1F627C08E010B581F4FBA
:101E7000FE01E958FF4F60817181828193810E9448
:101E80004900DC01CB01F80191838083DE01AF586A
:101E9000BF4FFE01EB58FF4F808191818D939C9342
:101EA000FE01EF58FF4F808191810197F1F7FE010C
:101EB000EF58FF4F9183808383E00E948115FE01DC
:101EC000E359FF4F80E090E0A0EAB0E48083918383
:101ED000A283B3838E0107591F4FFE01E359FF4FC1
:101EE000608171818281938120E030E04AEF54E487
:101EF0000E941F02DC01CB01F80180839183A28341
:101F0000B383FE01E759FF4F608171818281938124
:101F100020E030E040E85FE30E942504882344F499
:101F2000FE01E959FF4F81E090E09183808364C016
:101F3000FE01E759FF4F608171818281938120E02A
:101F40003FEF4FE757E40E94C50318160CF043C05B
:101F5000FE01E359FF4F608171818281938120E00E
:101F600030E040E251E40E941F02DC01CB018E010F
:101F700009591F4FBC01CD010E944900DC01CB0172
:101F8000F801918380831FC0FE01EB59FF4F88EC5D
:101F900090E091838083FE01EB59FF4F8081918116
:101FA0000197F1F7FE01EB59FF4F91838083DE012A
:101FB000A959BF4FFE01E959FF4F808191810197D7
:101FC00011969C938E93FE01E959FF4F8081918178
:101FD0000097D1F627C08E0109591F4FFE01E7591E
:101FE000FF4F60817181828193810E944900DC01F1
:101FF000CB01F80191838083DE01AD59BF4FFE0113
:10200000E959FF4F808191818D939C93FE01ED5999
:10201000FF4F808191810197F1F7FE01ED59FF4F4C
:102020009183808383E00E948115FE01E15AFF4F76
:1020300080E090E0A0EAB0E480839183A283B38340
:102040008E01055A1F4FFE01E15AFF4F60817181D9
:102050008281938120E030E04AEF54E40E941F0225
:10206000DC01CB01F80180839183A283B383FE015D
:10207000E55AFF4F608171818281938120E030E0D9
:1020800040E85FE30E942504882344F4FE01E75AF8
:10209000FF4F81E090E09183808364C0FE01E55AA8
:1020A000FF4F608171818281938120E03FEF4FE794
:1020B00057E40E94C50318160CF043C0FE01E15A14
:1020C000FF4F608171818281938120E030E040E2A6
:1020D00051E40E941F02DC01CB018E01075A1F4F01
:1020E000BC01CD010E944900DC01CB01F8019183C4
:1020F00080831FC0FE01E95AFF4F88EC90E0918376
:102100008083FE01E95AFF4F808191810197F1F7A9
:10211000FE01E95AFF4F91838083DE01A75ABF4F2A
:10212000FE01E75AFF4F80819181019711969C93A0
:102130008E93FE01E75AFF4F808191810097D1F67F
:1021400027C08E01075A1F4FFE01E55AFF4F6081DD
:102150007181828193810E944900DC01CB01F801E9
:1021600091838083DE01AB5ABF4FFE01E75AFF4FD8
:10217000808191818D939C93FE01EB5AFF4F80816A
:1021800091810197F1F7FE01EB5AFF4F9183808314
:1021900083E00E948115FE01EF5AFF4F80E090E03E
:1021A000A0EAB0E480839183A283B3838E01035BB2
:1021B0001F4FFE01EF5AFF4F608171818281938131
:1021C00020E030E04AEF54E40E941F02DC01CB0122
:1021D000F80180839183A283B383FE01E35BFF4F09
:1021E000608171818281938120E030E040E85FE38B
:1021F0000E942504882344F4FE01E55BFF4F81E043
:1022000090E09183808364C0FE01E35BFF4F6081B7
:1022100071818281938120E03FEF4FE757E40E9474
:10222000C50318160CF043C0FE01EF5AFF4F608142
:1022300071818281938120E030E040E251E40E948C
:102240001F02DC01CB018E01055B1F4FBC01CD01DC
:102250000E944900DC01CB01F801918380831FC0FB
:10226000FE01E75BFF4F88EC90E091838083FE01E5
:10227000E75BFF4F808191810197F1F7FE01E75BFA
:10228000FF4F91838083DE01A55BBF4FFE01E55BBD
:10229000FF4F80819181019711969C938E93FE014F
:1022A000E55BFF4F808191810097D1F627C08E01B9
:1022B000055B1F4FFE01E35BFF4F608171818281EF
:1022C00093810E944900DC01CB01F8019183808356
:1022D000DE01A95BBF4FFE01E55BFF4F808191816D
:1022E0008D939C93FE01E95BFF4F80819181019763
:1022F000F1F7FE01E95BFF4F9183808382E00E944A
:102300008115FE01ED5BFF4F80E090E0A0EAB0E4B4
:1023100080839183A283B3838E01015C1F4FFE01F2
:10232000ED5BFF4F608171818281938120E030E01D
:102330004AEF54E40E941F02DC01CB01F8018083C4
:102340009183A283B383FE01FF96608171818281B4
:10235000938120E030E040E85FE30E942504882379
:102360002CF481E090E09EAF8DAF46C0FE01FF9659
:10237000608171818281938120E03FEF4FE757E4D4
:102380000E94C503181664F5FE01ED5BFF4F6081E6
:1023900071818281938120E030E040E251E40E942B
:1023A0001F02DC01CB01BC01CD010E944900DC0110
:1023B000CB019EAF8DAF0FC088EC90E09CAF8BAF90
:1023C0008BAD9CAD0197F1F79CAF8BAF8DAD9EAD02
:1023D00001979EAF8DAF8DAD9EAD009769F716C08A
:1023E000FE01FF9660817181828193810E94490084
:1023F000DC01CB019EAF8DAF8DAD9EAD9AAF89AFA5
:1024000089AD9AAD0197F1F79AAF89AF88E20E9442
:102410004D1580E090E0A0EAB0E48DAB9EABAFAB91
:10242000B8AF6DA97EA98FA998AD20E030E04AEF42
:1024300054E40E941F02DC01CB0189AB9AABABAB29
:10244000BCAB69A97AA98BA99CA920E030E040E83F
:102450005FE30E94250488232CF481E090E098AB90
:102460008FA73FC069A97AA98BA99CA920E03FEF5B
:102470004FE757E40E94C50318164CF56DA97EA9D5
:102480008FA998AD20E030E040E251E40E941F02A5
:10249000DC01CB01BC01CD010E944900DC01CB0174
:1024A00098AB8FA70FC088EC90E09EA78DA78DA555
:1024B0009EA50197F1F79EA78DA78FA598A90197D3
:1024C00098AB8FA78FA598A9009769F714C069A941
:1024D0007AA98BA99CA90E944900DC01CB0198AB89
:1024E0008FA78FA598A99CA78BA78BA59CA50197C3
:1024F000F1F79CA78BA78CE00E944D1580E090E03F
:10250000A0EAB0E48FA398A7A9A7BAA76FA178A55E
:1025100089A59AA520E030E04AEF54E40E941F020A
:10252000DC01CB018BA39CA3ADA3BEA36BA17CA1BB
:102530008DA19EA120E030E040E85FE30E942504E9
:1025400088232CF481E090E09AA389A33FC06BA17B
:102550007CA18DA19EA120E03FEF4FE757E40E94B0
:10256000C50318164CF56FA178A589A59AA520E09A
:1025700030E040E251E40E941F02DC01CB01BC01CB
:10258000CD010E944900DC01CB019AA389A30FC0B1
:1025900088EC90E098A38F8F8F8D98A10197F1F729
:1025A00098A38F8F89A19AA101979AA389A389A142
:1025B0009AA1009769F714C06BA17CA18DA19EA17F
:1025C0000E944900DC01CB019AA389A389A19AA1A9
:1025D0009E8F8D8F8D8D9E8D0197F1F79E8F8D8FA4
:1025E00086E00E944D1580E090E0A0EAB0E4898F7B
:1025F0009A8FAB8FBC8F698D7A8D8B8D9C8D20E0EF
:1026000030E04AEF54E40E941F02DC01CB018D8BC5
:102610009E8BAF8BB88F6D897E898F89988D20E0D6
:1026200030E040E85FE30E94250488232CF481E039
:1026300090E09C8B8B8B3FC06D897E898F89988DB4
:1026400020E03FEF4FE757E40E94C50318164CF512
:10265000698D7A8D8B8D9C8D20E030E040E251E4D5
:102660000E941F02DC01CB01BC01CD010E94490088
:10267000DC01CB019C8B8B8B0FC088EC90E09A8B9C
:10268000898B89899A890197F1F79A8B898B8B8934
:102690009C8901979C8B8B8B8B899C89009769F710
:1026A00014C06D897E898F89988D0E944900DC0154
:1026B000CB019C8B8B8B8B899C89988B8F878F858B
:1026C00098890197F1F7988B8F870E94E51380E036
:1026D00090E0A0EAB0E48B879C87AD87BE876B85CE
:1026E0007C858D859E8520E030E04AEF54E40E9491
:1026F0001F02DC01CB018F839887A987BA876F817E
:10270000788589859A8520E030E040E85FE30E9483
:10271000250488232CF481E090E09E838D833FC0C4
:102720006F81788589859A8520E03FEF4FE757E4F0
:102730000E94C50318164CF56B857C858D859E859A
:1027400020E030E040E251E40E941F02DC01CB01B6
:10275000BC01CD010E944900DC01CB019E838D8329
:102760000FC088EC90E09C838B838B819C810197C8
:10277000F1F79C838B838D819E8101979E838D834E
:102780008D819E81009769F714C06F817885898556
:102790009A850E944900DC01CB019E838D838D8147
:1027A0009E819A83898389819A810197F1F79A831F
:1027B0008983C258DF4F0FB6F894DEBF0FBECDBF7E
:1027C000CF91DF911F910F910895DF93CF93CDB7F4
:1027D000DEB72E970FB6F894DEBF0FBECDBF81E0F7
:1027E0000E944D1580E090E0A0E0B0E48B879C87CC
:1027F000AD87BE876B857C858D859E8520E030E02A
:102800004AEF54E40E941F02DC01CB018F839887BA
:10281000A987BA876F81788589859A8520E030E01D
:1028200040E85FE30E94250488232CF481E090E0D7
:102830009E838D833FC06F81788589859A8520E04E
:102840003FEF4FE757E40E94C50318164CF56B8520
:102850007C858D859E8520E030E040E251E40E9439
:102860001F02DC01CB01BC01CD010E944900DC014B
:10287000CB019E838D830FC088EC90E09C838B837B
:102880008B819C810197F1F79C838B838D819E8145
:1028900001979E838D838D819E81009769F714C077
:1028A0006F81788589859A850E944900DC01CB017A
:1028B0009E838D838D819E819A83898389819A816C
:1028C0000197F1F79A8389832E960FB6F894DEBFAD
:1028D0000FBECDBFCF91DF910895DF93CF9300D08E
:1028E0000F92CDB7DEB78A836B838A81882319F470
:1028F0008B81898303C08B81805C89838981806817
:102900000E944D150F900F900F90CF91DF91089579
:10291000DF93CF9300D0CDB7DEB79A8389830AC007
:10292000E981FA8180810E94A41489819A810196AB
:102930009A838983E981FA818081882389F70F90BE
:102940000F90CF91DF910895DF93CF930F92CDB782
:10295000DEB7898389810E9467150F90CF91DF913F
:102960000895DF93CF93CDB7DEB763970FB6F89492
:10297000DEBF0FBECDBF898B6A8B4B8B8989682FD9
:1029800070E08A89282F30E08B89482F50E08DB77E
:102990009EB70A970FB6F8949EBF0FBE8DBFEDB7D6
:1029A000FEB73196CE0101969183808384E790E053
:1029B000938382837583648337832683518740871B
:1029C0000E94D8378DB79EB70A960FB6F8949EBF6F
:1029D0000FBE8DBFCE0101960E94881463960FB67C
:1029E000F894DEBF0FBECDBFCF91DF910895DF9386
:1029F000CF93CDB7DEB764970FB6F894DEBF0FBEA6
:102A0000CDBF898B6A8B5C8B4B8B8989282F30E0FB
:102A10008A89482F50E08DB79EB70A970FB6F89471
:102A20009EBF0FBE8DBFEDB7FEB73196CE010196AA
:102A30009183808383E890E093838283358324832A
:102A4000578346838B899C89918780870E94D837DA
:102A50008DB79EB70A960FB6F8949EBF0FBE8DBF76
:102A6000CE0101960E94881464960FB6F894DEBFDA
:102A70000FBECDBFCF91DF910895DF93CF9300D0EC
:102A8000CDB7DEB79A83898389819A810E948814A1
:102A90000F900F90CF91DF910895DF93CF930F9216
:102AA000CDB7DEB78983A2E3B0E0E2E3F0E0808156
:102AB0008E7F8C93898182958F700E948115898188
:102AC0008F700E9481150F90CF91DF910895DF9351
:102AD000CF930F92CDB7DEB78983A2E3B0E0E2E3F4
:102AE000F0E0808181608C93898182958F700E9453
:102AF000811589818F700E9481150F90CF91DF9190
:102B00000895DF93CF930F92CDB7DEB78983A2E309
:102B1000B0E0E2E3F0E080818F708C938981882FB0
:102B200090E081709070882339F0A2E3B0E0E2E396
:102B3000F0E0808180618C938981882F90E08270A1
:102B40009070009739F0A2E3B0E0E2E3F0E080811A
:102B500080628C938981882F90E0847090700097B8
:102B600039F0A2E3B0E0E2E3F0E0808180648C938E
:102B70008981882F90E088709070009739F0A2E3E7
:102B8000B0E0E2E3F0E0808180688C930E94CC1595
:102B90000F90CF91DF910895DF93CF93CDB7DEB73C
:102BA000E0970FB6F894DEBF0FBECDBFA2E3B0E052
:102BB000E2E3F0E0808184608C9380E090E0A0E824
:102BC000BFE38DA79EA7AFA7B8AB6DA57EA58FA5C8
:102BD00098A92BEA3AEA4AE250E40E941F02DC017B
:102BE000CB0189A79AA7ABA7BCA769A57AA58BA596
:102BF0009CA520E030E040E85FE30E9425048823A4
:102C00001CF481E088A791C069A57AA58BA59CA535
:102C100020E030E04FE753E40E94C50318160CF0A3
:102C20007BC06DA57EA58FA598A920E030E04AE77E
:102C300054E40E941903DC01CB018CA39DA3AEA335
:102C4000BFA36CA17DA18EA19FA120E030E04AEF3F
:102C500054E40E941F02DC01CB0188A399A3AAA31C
:102C6000BBA368A179A18AA19BA120E030E040E844
:102C70005FE30E94250488232CF481E090E09F8F7D
:102C80008E8F3FC068A179A18AA19BA120E03FEF70
:102C90004FE757E40E94C50318164CF56CA17DA1BF
:102CA0008EA19FA120E030E040E251E40E941F028B
:102CB000DC01CB01BC01CD010E944900DC01CB014C
:102CC0009F8F8E8F0FC088EC90E09D8F8C8F8C8DA6
:102CD0009D8D0197F1F79D8F8C8F8E8D9F8D019724
:102CE0009F8F8E8F8E8D9F8D009769F724C068A16E
:102CF00079A18AA19BA10E944900DC01CB019F8F91
:102D00008E8F8E8D9F8D9B8F8A8F8A8D9B8D019745
:102D1000F1F79B8F8A8F0FC069A57AA58BA59CA51B
:102D20000E944900DC01CB0188A788A5898F898D85
:102D30008A95F1F7898FA2E3B0E0E2E3F0E08081C9
:102D40008B7F8C9380E090E0A0E8BFE38D8B9E8B1F
:102D5000AF8BB88F6D897E898F89988D2BEA3AEA7F
:102D60004AE250E40E941F02DC01CB01898B9A8B5E
:102D7000AB8BBC8B69897A898B899C8920E030E098
:102D800040E85FE30E94250488231CF481E0888BDF
:102D900091C069897A898B899C8920E030E04FE76E
:102DA00053E40E94C50318160CF07BC06D897E8920
:102DB0008F89988D20E030E04AE754E40E9419039F
:102DC000DC01CB018C879D87AE87BF876C857D85B5
:102DD0008E859F8520E030E04AEF54E40E941F0278
:102DE000DC01CB0188879987AA87BB8768857985AD
:102DF0008A859B8520E030E040E85FE30E9425045F
:102E000088232CF481E090E09F838E833FC0688507
:102E100079858A859B8520E03FEF4FE757E40E9444
:102E2000C50318164CF56C857D858E859F8520E041
:102E300030E040E251E40E941F02DC01CB01BC0102
:102E4000CD010E944900DC01CB019F838E830FC01E
:102E500088EC90E09D838C838C819D810197F1F7B4
:102E60009D838C838E819F8101979F838E838E812A
:102E70009F81009769F724C0688579858A859B853D
:102E80000E944900DC01CB019F838E838E819F814C
:102E90009B838A838A819B810197F1F79B838A8335
:102EA0000FC069897A898B899C890E944900DC015D
:102EB000CB01888B8889898389818A95F1F78983F9
:102EC000E0960FB6F894DEBF0FBECDBFCF91DF9175
:102ED0000895DF93CF93CDB7DEB76E970FB6F89412
:102EE000DEBF0FBECDBF0E94C41878940E94DB08DD
:102EF00080E00E942F0A882309F483C08091020396
:102F0000882F90E0019626E030E0B9010E94513709
:102F10008093020381E08093CC020E94E51380E05D
:102F200090E0A8E4B3E4898F9A8FAB8FBC8F698D52
:102F30007A8D8B8D9C8D20E030E04AEF54E40E9426
:102F40001F02DC01CB018D8B9E8BAF8BB88F6D89FF
:102F50007E898F89988D20E030E040E85FE30E9411
:102F6000250488232CF481E090E09C8B8B8B3FC060
:102F70006D897E898F89988D20E03FEF4FE757E478
:102F80000E94C50318164CF5698D7A8D8B8D9C8D2A
:102F900020E030E040E251E40E941F02DC01CB015E
:102FA000BC01CD010E944900DC01CB019C8B8B8BC5
:102FB0000FC088EC90E09A8B898B89899A89019758
:102FC000F1F79A8B898B8B899C8901979C8B8B8BD2
:102FD0008B899C89009769F714C06D897E898F89D8
:102FE000988D0E944900DC01CB019C8B8B8B8B89D7
:102FF0009C89988B8F878F8598890197F1F7988B9B
:103000008F8780910203282F30E03E8F2D8F8D8D8A
:103010009E8D8230910529F12D8D3E8D2330310515
:1030200054F48D8D9E8D0097B1F02D8D3E8D213005
:103030003105A1F022C08D8D9E8D84309105B9F0AF
:103040002D8D3E8D243031057CF08D8D9E8D85300B
:10305000910581F012C00E94BF1911C00E94C619CB
:103060000EC00E94241C0BC00E94DB1D08C00E94E1
:10307000EF1E05C00E94A22002C0109202030E940F
:1030800045240E94EA248091CC02882321F4809177
:103090000303882331F00E94EF221092CC02109299
:1030A000030380E090E0A8E4B2E48B879C87AD87BF
:1030B000BE876B857C858D859E8520E030E04AEF5C
:1030C00054E40E941F02DC01CB018F839887A987FB
:1030D000BA876F81788589859A8520E030E040E85D
:1030E0005FE30E94250488232CF481E090E09E8316
:1030F0008D833FC06F81788589859A8520E03FEF79
:103100004FE757E40E94C50318164CF56B857C8584
:103110008D859E8520E030E040E251E40E941F0250
:10312000DC01CB01BC01CD010E944900DC01CB01D7
:103130009E838D830FC088EC90E09C838B838B8172
:103140009C810197F1F79C838B838D819E810197F0
:103150009E838D838D819E81009769F7C7CE6F8195
:10316000788589859A850E944900DC01CB019E8380
:103170008D838D819E819A83898389819A8101972C
:10318000F1F79A838983B2CEDF93CF93CDB7DEB7C1
:103190002E970FB6F894DEBF0FBECDBF0E94950EDE
:1031A0000E94E42F0E94A0080E94F4310E94650D45
:1031B0000E9475070E94CA0AEFE4F0E01082EEE474
:1031C000F0E08DE08083EAE4F0E083E89EE1918323
:1031D0008083E9E5F0E080E180830E94E51380E0F0
:1031E00060E00E946D1482E990E00E94881481E002
:1031F00060E00E946D1482EA90E00E94881480E0F2
:1032000090E0AAEFB4E48B879C87AD87BE876B857F
:103210007C858D859E8520E030E04AEF54E40E9455
:103220001F02DC01CB018F839887A987BA876F8142
:10323000788589859A8520E030E040E85FE30E9448
:10324000250488232CF481E090E09E838D833FC089
:103250006F81788589859A8520E03FEF4FE757E4B5
:103260000E94C50318164CF56B857C858D859E855F
:1032700020E030E040E251E40E941F02DC01CB017B
:10328000BC01CD010E944900DC01CB019E838D83EE
:103290000FC088EC90E09C838B838B819C8101978D
:1032A000F1F79C838B838D819E8101979E838D8313
:1032B0008D819E81009769F714C06F81788589851B
:1032C0009A850E944900DC01CB019E838D838D810C
:1032D0009E819A83898389819A810197F1F79A83E4
:1032E00089830E94E5132E960FB6F894DEBF0FBEB9
:1032F000CDBFCF91DF910895DF93CF93CDB7DEB7E8
:103300002C970FB6F894DEBF0FBECDBFCE0101964D
:1033100099878887E0EEF2E0FB87EA87F3E0FC8795
:10332000EA85FB8500808A859B8501969B878A8735
:10333000E885F9850082888599850196998788872F
:103340009C8591509C87EC85EE2351F78FE08C8310
:1033500081E08D8388EE97E09F838E83CE01019676
:103360000E94D630CE0104960E942B312C960FB6C7
:10337000F894DEBF0FBECDBFCF91DF910895DF93EC
:10338000CF93CDB7DEB7CF91DF910895DF93CF9381
:10339000CDB7DEB7AE970FB6F894DEBF0FBECDBF88
:1033A0008091040391E08927882359F084ED92E00D
:1033B0000E94AF3087ED92E00E94003181E080935F
:1033C000040381E00E942F0A882309F47EC08091C3
:1033D0000503882F90E0019626E030E0B9010E94B5
:1033E00051378093050380E090E0A8E4B3E48FA315
:1033F00098A7A9A7BAA76FA178A589A59AA520E043
:1034000030E04AEF54E40E941F02DC01CB018BA3A1
:103410009CA3ADA3BEA36BA17CA18DA19EA120E026
:1034200030E040E85FE30E94250488232CF481E02B
:1034300090E09AA389A33FC06BA17CA18DA19EA11E
:1034400020E03FEF4FE757E40E94C50318164CF504
:103450006FA178A589A59AA520E030E040E251E46B
:103460000E941F02DC01CB01BC01CD010E9449007A
:10347000DC01CB019AA389A30FC088EC90E098A34C
:103480008F8F8F8D98A10197F1F798A38F8F89A1C6
:103490009AA101979AA389A389A19AA1009769F794
:1034A00014C06BA17CA18DA19EA10E944900DC01EA
:1034B000CB019AA389A389A19AA19E8F8D8F8D8D0F
:1034C0009E8D0197F1F79E8F8D8F82E00E942F0ACB
:1034D000882309F4D1C080910503282F30E03EA74E
:1034E0002DA78DA59EA58230910569F12DA53EA53C
:1034F0002330310554F48DA59EA50097B1F02DA57C
:103500003EA521303105C1F045C08DA59EA5843072
:10351000910579F12DA53EA524303105DCF08DA56E
:103520009EA58530910561F135C08091D6020E943B
:103530004A338093D6022EC08091D5020E94703308
:103540008093D50227C08091D4020E949633809345
:10355000D40220C08091D7029091D8022091D90244
:103560003091DA02692FA9010E94BC338093D702FF
:1035700011C08091D8020E9400348093D8020AC002
:103580008091D9029091DA020E9427349093DA0256
:103590008093D90280E090E0A8E4B3E4898F9A8F09
:1035A000AB8FBC8F698D7A8D8B8D9C8D20E030E048
:1035B0004AEF54E40E941F02DC01CB018D8B9E8BED
:1035C000AF8BB88F6D897E898F89988D20E030E030
:1035D00040E85FE30E94250488232CF481E090E01A
:1035E0009C8B8B8B3FC06D897E898F89988D20E065
:1035F0003FEF4FE757E40E94C50318164CF5698D5D
:103600007A8D8B8D9C8D20E030E040E251E40E9469
:103610001F02DC01CB01BC01CD010E944900DC018D
:10362000CB019C8B8B8B0FC088EC90E09A8B898BA5
:1036300089899A890197F1F79A8B898B8B899C8963
:1036400001979C8B8B8B8B899C89009769F714C0A1
:103650006D897E898F89988D0E944900DC01CB019C
:103660009C8B8B8B8B899C89988B8F878F85988976
:103670000197F1F7988B8F8783E00E942F0A8823A8
:1036800009F4D1C080910503282F30E03CA72BA777
:103690008BA59CA58230910569F12BA53CA5233013
:1036A000310554F48BA59CA50097B1F02BA53CA542
:1036B00021303105C1F045C08BA59CA58430910512
:1036C00079F12BA53CA524303105DCF08BA59CA518
:1036D0008530910561F135C08091D6020E945C333E
:1036E0008093D6022EC08091D5020E9482338093AF
:1036F000D50227C08091D4020E94A8338093D402BF
:1037000020C08091D7029091D8022091D9023091A7
:10371000DA02692FA9010E94E0338093D70211C019
:103720008091D8020E9413348093D8020AC08091FD
:10373000D9029091DA020E9444349093DA02809385
:10374000D90280E090E0A8E4B3E48B879C87AD8742
:10375000BE876B857C858D859E8520E030E04AEFB5
:1037600054E40E941F02DC01CB018F839887A98754
:10377000BA876F81788589859A8520E030E040E8B6
:103780005FE30E94250488232CF481E090E09E836F
:103790008D833FC06F81788589859A8520E03FEFD2
:1037A0004FE757E40E94C50318164CF56B857C85DE
:1037B0008D859E8520E030E040E251E40E941F02AA
:1037C000DC01CB01BC01CD010E944900DC01CB0131
:1037D0009E838D830FC088EC90E09C838B838B81CC
:1037E0009C810197F1F79C838B838D819E8101974A
:1037F0009E838D838D819E81009769F714C06F81B0
:10380000788589859A850E944900DC01CB019E83D9
:103810008D838D819E819A83898389819A81019785
:10382000F1F79A83898384ED92E00E94D63087ED88
:1038300092E00E942B31AE960FB6F894DEBF0FBE19
:10384000CDBFCF91DF910895DF93CF93CDB7DEB792
:10385000AA970FB6F894DEBF0FBECDBF81E00E94DD
:103860002F0A882309F47EC080910603882F90E0F8
:10387000019622E030E0B9010E945137809306039F
:1038800080E090E0A8E4B3E48FA398A7A9A7BAA723
:103890006FA178A589A59AA520E030E04AEF54E40D
:1038A0000E941F02DC01CB018BA39CA3ADA3BEA38E
:1038B0006BA17CA18DA19EA120E030E040E85FE3F8
:1038C0000E94250488232CF481E090E09AA389A328
:1038D0003FC06BA17CA18DA19EA120E03FEF4FE7EF
:1038E00057E40E94C50318164CF56FA178A589A569
:1038F0009AA520E030E040E251E40E941F02DC0182
:10390000CB01BC01CD010E944900DC01CB019AA38F
:1039100089A30FC088EC90E098A38F8F8F8D98A11A
:103920000197F1F798A38F8F89A19AA101979AA384
:1039300089A389A19AA1009769F714C06BA17CA102
:103940008DA19EA10E944900DC01CB019AA389A30D
:1039500089A19AA19E8F8D8F8D8D9E8D0197F1F7F4
:103960009E8F8D8F82E00E942F0A882309F48AC0DF
:1039700080910603882339F48091DD020E944A3346
:103980008093DD0206C08091DC020E947033809338
:10399000DC028091DD029091DC02692F0E94860793
:1039A00080E090E0A8E4B3E4898F9A8FAB8FBC8F5E
:1039B000698D7A8D8B8D9C8D20E030E04AEF54E448
:1039C0000E941F02DC01CB018D8B9E8BAF8BB88FC9
:1039D0006D897E898F89988D20E030E040E85FE333
:1039E0000E94250488232CF481E090E09C8B8B8B33
:1039F0003FC06D897E898F89988D20E03FEF4FE72A
:103A000057E40E94C50318164CF5698D7A8D8B8D8D
:103A10009C8D20E030E040E251E40E941F02DC0176
:103A2000CB01BC01CD010E944900DC01CB019C8B84
:103A30008B8B0FC088EC90E09A8B898B89899A894F
:103A40000197F1F79A8B898B8B899C8901979C8BC5
:103A50008B8B8B899C89009769F714C06D897E894F
:103A60008F89988D0E944900DC01CB019C8B8B8B48
:103A70008B899C89988B8F878F8598890197F1F71F
:103A8000988B8F8783E00E942F0A882309F48AC0CD
:103A900080910603882339F48091DD020E945C3313
:103AA0008093DD0206C08091DC020E948233809305
:103AB000DC028091DD029091DC02692F0E94860772
:103AC00080E090E0A8E4B3E48B879C87AD87BE8755
:103AD0006B857C858D859E8520E030E04AEF54E43F
:103AE0000E941F02DC01CB018F839887A987BA87C8
:103AF0006F81788589859A8520E030E040E85FE332
:103B00000E94250488232CF481E090E09E838D831D
:103B10003FC06F81788589859A8520E03FEF4FE728
:103B200057E40E94C50318164CF56B857C858D857E
:103B30009E8520E030E040E251E40E941F02DC015B
:103B4000CB01BC01CD010E944900DC01CB019E8369
:103B50008D830FC088EC90E09C838B838B819C814C
:103B60000197F1F79C838B838D819E8101979E83C2
:103B70008D838D819E81009769F714C06F81788550
:103B800089859A850E944900DC01CB019E838D8343
:103B90008D819E819A83898389819A810197F1F72A
:103BA0009A838983AA960FB6F894DEBF0FBECDBF65
:103BB000CF91DF910895DF93CF93CDB7DEB76C97A8
:103BC0000FB6F894DEBF0FBECDBF82E00E942F0A71
:103BD000882309F47BC00E943A32882319F00E949E
:103BE000113202C00E94033280E090E0A8E4B3E406
:103BF000898F9A8FAB8FBC8F698D7A8D8B8D9C8DC1
:103C000020E030E04AEF54E40E941F02DC01CB01C7
:103C10008D8B9E8BAF8BB88F6D897E898F89988DA8
:103C200020E030E040E85FE30E94250488232CF484
:103C300081E090E09C8B8B8B3FC06D897E898F8962
:103C4000988D20E03FEF4FE757E40E94C503181618
:103C50004CF5698D7A8D8B8D9C8D20E030E040E2B3
:103C600051E40E941F02DC01CB01BC01CD010E9486
:103C70004900DC01CB019C8B8B8B0FC088EC90E062
:103C80009A8B898B89899A890197F1F79A8B898B0D
:103C90008B899C8901979C8B8B8B8B899C89009746
:103CA00069F714C06D897E898F89988D0E944900BB
:103CB000DC01CB019C8B8B8B8B899C89988B8F87AC
:103CC0008F8598890197F1F7988B8F8783E00E9401
:103CD0002F0A882309F474C00E941E3280E090E00D
:103CE000A8E4B3E48B879C87AD87BE876B857C8512
:103CF0008D859E8520E030E04AEF54E40E941F024B
:103D0000DC01CB018F839887A987BA876F8178857B
:103D100089859A8520E030E040E85FE30E94250431
:103D200088232CF481E090E09E838D833FC06F81D7
:103D3000788589859A8520E03FEF4FE757E40E9418
:103D4000C50318164CF56B857C858D859E8520E016
:103D500030E040E251E40E941F02DC01CB01BC01D3
:103D6000CD010E944900DC01CB019E838D830FC0F1
:103D700088EC90E09C838B838B819C810197F1F789
:103D80009C838B838D819E8101979E838D838D8102
:103D90009E81009769F714C06F81788589859A851F
:103DA0000E944900DC01CB019E838D838D819E8121
:103DB0009A83898389819A810197F1F79A8389830C
:103DC00080910303882311F00E942D326C960FB668
:103DD000F894DEBF0FBECDBFCF91DF910895DF9382
:103DE000CF93CDB7DEB7AA970FB6F894DEBF0FBE5C
:103DF000CDBF81E00E942F0A882309F47EC0809104
:103E00000703882F90E0019622E030E0B9010E947C
:103E100051378093070380E090E0A8E4B3E48FA3D8
:103E200098A7A9A7BAA76FA178A589A59AA520E008
:103E300030E04AEF54E40E941F02DC01CB018BA367
:103E40009CA3ADA3BEA36BA17CA18DA19EA120E0EC
:103E500030E040E85FE30E94250488232CF481E0F1
:103E600090E09AA389A33FC06BA17CA18DA19EA1E4
:103E700020E03FEF4FE757E40E94C50318164CF5CA
:103E80006FA178A589A59AA520E030E040E251E431
:103E90000E941F02DC01CB01BC01CD010E94490040
:103EA000DC01CB019AA389A30FC088EC90E098A312
:103EB0008F8F8F8D98A10197F1F798A38F8F89A18C
:103EC0009AA101979AA389A389A19AA1009769F75A
:103ED00014C06BA17CA18DA19EA10E944900DC01B0
:103EE000CB019AA389A389A19AA19E8F8D8F8D8DD5
:103EF0009E8D0197F1F79E8F8D8F82E00E942F0A91
:103F0000882309F47BC00E94CD0D882319F00E94FC
:103F1000A20D02C00E948E0D80E090E0A8E4B3E400
:103F2000898F9A8FAB8FBC8F698D7A8D8B8D9C8D8D
:103F300020E030E04AEF54E40E941F02DC01CB0194
:103F40008D8B9E8BAF8BB88F6D897E898F89988D75
:103F500020E030E040E85FE30E94250488232CF451
:103F600081E090E09C8B8B8B3FC06D897E898F892F
:103F7000988D20E03FEF4FE757E40E94C5031816E5
:103F80004CF5698D7A8D8B8D9C8D20E030E040E280
:103F900051E40E941F02DC01CB01BC01CD010E9453
:103FA0004900DC01CB019C8B8B8B0FC088EC90E02F
:103FB0009A8B898B89899A890197F1F79A8B898BDA
:103FC0008B899C8901979C8B8B8B8B899C89009713
:103FD00069F714C06D897E898F89988D0E94490088
:103FE000DC01CB019C8B8B8B8B899C89988B8F8779
:103FF0008F8598890197F1F7988B8F8783E00E94CE
:104000002F0A882309F48FC080910703882351F475
:104010008091DE029091DF02CC969093DF02809334
:10402000DE0209C08091DE029091DF02019690933A
:10403000DF028093DE028091DE029091DF020E9417
:10404000760D80E090E0A8E4B3E48B879C87AD8791
:10405000BE876B857C858D859E8520E030E04AEFAC
:1040600054E40E941F02DC01CB018F839887A9874B
:10407000BA876F81788589859A8520E030E040E8AD
:104080005FE30E94250488232CF481E090E09E8366
:104090008D833FC06F81788589859A8520E03FEFC9
:1040A0004FE757E40E94C50318164CF56B857C85D5
:1040B0008D859E8520E030E040E251E40E941F02A1
:1040C000DC01CB01BC01CD010E944900DC01CB0128
:1040D0009E838D830FC088EC90E09C838B838B81C3
:1040E0009C810197F1F79C838B838D819E81019741
:1040F0009E838D838D819E81009769F714C06F81A7
:10410000788589859A850E944900DC01CB019E83D0
:104110008D838D819E819A83898389819A8101977C
:10412000F1F79A83898380910303882311F00E9419
:10413000C00DAA960FB6F894DEBF0FBECDBFCF91CB
:10414000DF910895DF93CF93CDB7DEB7AE970FB66B
:10415000F894DEBF0FBECDBF81E00E942F0A8823F6
:1041600009F47EC080910803882F90E0019626E034
:1041700030E0B9010E9451378093080380E090E05D
:10418000A8E4B3E48FA398A7A9A7BAA76FA178A5BD
:1041900089A59AA520E030E04AEF54E40E941F026E
:1041A000DC01CB018BA39CA3ADA3BEA36BA17CA11F
:1041B0008DA19EA120E030E040E85FE30E9425044D
:1041C00088232CF481E090E09AA389A33FC06BA1DF
:1041D0007CA18DA19EA120E03FEF4FE757E40E9414
:1041E000C50318164CF56FA178A589A59AA520E0FE
:1041F00030E040E251E40E941F02DC01CB01BC012F
:10420000CD010E944900DC01CB019AA389A30FC014
:1042100088EC90E098A38F8F8F8D98A10197F1F78C
:1042200098A38F8F89A19AA101979AA389A389A1A5
:104230009AA1009769F714C06BA17CA18DA19EA1E2
:104240000E944900DC01CB019AA389A389A19AA10C
:104250009E8F8D8F8D8D9E8D0197F1F79E8F8D8F07
:1042600082E00E942F0A882309F4D1C080910803BC
:10427000282F30E03EA72DA78DA59EA58230910561
:1042800069F12DA53EA52330310554F48DA59EA5D9
:104290000097B1F02DA53EA521303105C1F045C0F4
:1042A0008DA59EA58430910579F12DA53EA52430DC
:1042B0003105DCF08DA59EA58530910561F135C0F5
:1042C0008091CF020E944A338093CF022EC080910A
:1042D000CE020E9470338093CE0227C08091CD021F
:1042E0000E9496338093CD0220C08091D00290919D
:1042F000D1022091D2023091D302692FA9010E94EC
:10430000BC338093D00211C08091D1020E9400344E
:104310008093D1020AC08091D2029091D3020E9470
:1043200027349093D3028093D20280E090E0A8E4F7
:10433000B3E4898F9A8FAB8FBC8F698D7A8D8B8D0B
:104340009C8D20E030E04AEF54E40E941F02DC0123
:10435000CB018D8B9E8BAF8BB88F6D897E898F89BA
:10436000988D20E030E040E85FE30E942504882338
:104370002CF481E090E09C8B8B8B3FC06D897E8913
:104380008F89988D20E03FEF4FE757E40E94C503E7
:1043900018164CF5698D7A8D8B8D9C8D20E030E060
:1043A00040E251E40E941F02DC01CB01BC01CD01BF
:1043B0000E944900DC01CB019C8B8B8B0FC088ECE9
:1043C00090E09A8B898B89899A890197F1F79A8B6A
:1043D000898B8B899C8901979C8B8B8B8B899C8982
:1043E000009769F714C06D897E898F89988D0E9426
:1043F0004900DC01CB019C8B8B8B8B899C89988B32
:104400008F878F8598890197F1F7988B8F8783E045
:104410000E942F0A882309F4D1C080910803282F15
:1044200030E03CA72BA78BA59CA58230910569F1B4
:104430002BA53CA52330310554F48BA59CA50097F2
:10444000B1F02BA53CA521303105C1F045C08BA5AD
:104450009CA58430910579F12BA53CA5243031052C
:10446000DCF08BA59CA58530910561F135C080916C
:10447000CF020E945C338093CF022EC08091CE0287
:104480000E9482338093CE0227C08091CD020E9489
:10449000A8338093CD0220C08091D0029091D102A8
:1044A0002091D2023091D302692FA9010E94E033FA
:1044B0008093D00211C08091D1020E941334809366
:1044C000D1020AC08091D2029091D3020E9444345A
:1044D0009093D3028093D20280E090E0A8E4B3E40A
:1044E0008B879C87AD87BE876B857C858D859E85F8
:1044F00020E030E04AEF54E40E941F02DC01CB01CF
:104500008F839887A987BA876F81788589859A85EF
:1045100020E030E040E85FE30E94250488232CF48B
:1045200081E090E09E838D833FC06F81788589858F
:104530009A8520E03FEF4FE757E40E94C503181625
:104540004CF56B857C858D859E8520E030E040E2D2
:1045500051E40E941F02DC01CB01BC01CD010E948D
:104560004900DC01CB019E838D830FC088EC90E075
:104570009C838B838B819C810197F1F79C838B8338
:104580008D819E8101979E838D838D819E81009771
:1045900069F714C06F81788589859A850E944900E2
:1045A000DC01CB019E838D838D819E819A838983DB
:1045B00089819A810197F1F79A8389838DEC92E042
:1045C0000E94D63080ED92E00E942B31AE960FB65D
:1045D000F894DEBF0FBECDBFCF91DF910895DF937A
:1045E000CF93CDB7DEB7E9970FB6F894DEBF0FBE15
:1045F000CDBFCE0101960E94AF30CE0104960E943D
:10460000003180910203282F30E039AF28AF88AD08
:1046100099AD8230910509F495C028AD39AD2330AC
:1046200031055CF488AD99AD0097D1F028AD39AD76
:104630002130310509F44DC00FC188AD99AD8430EA
:10464000910509F4B5C028AD39AD243031050CF41D
:1046500094C088AD99AD8530910509F4C4C0FCC003
:104660009E01285F3F4FCE010196B9010E9462343E
:10467000CE0104969E01285E3F4FB9010E94A534E9
:10468000CE0104969E01285D3F4FB9010E94E73498
:1046900080E060E00E946D1482EB90E00E9488143C
:1046A00080E06BE00E946D148DEB90E00E94881416
:1046B00081E060E00E946D14CE0108960E9488148B
:1046C00081E069E00E946D14CE0188960E948814F2
:1046D000D3C084ED92E09E01285F3F4FB9010E9454
:1046E000623487ED92E09E01285E3F4FB9010E943F
:1046F000A53487ED92E09E01285D3F4FB9010E94ED
:10470000E73480E060E00E946D1480EC90E00E944D
:10471000881480E06BE00E946D1489EC90E00E94A8
:10472000881481E060E00E946D14CE0108960E941A
:10473000881481E069E00E946D14CE0188960E9481
:1047400088149AC080E060E00E946D148CEC90E0C8
:104750000E94881480E06BE00E946D1486ED90E06A
:104760000E94881481E060E00E946D1489ED90E061
:104770000E9488140E942F087FC080E060E00E94A1
:104780006D1481EE90E00E94881480E06BE00E943E
:104790006D148BEE90E00E94881481E060E00E942E
:1047A0006D148EEE90E00E9488140E948D3264C0D9
:1047B00080E060E00E946D1485EF90E00E94881414
:1047C00080E06BE00E946D148FEF90E00E948814EF
:1047D00081E060E00E946D148EEE90E00E948814EB
:1047E0000E94FA0D49C08DEC92E09E01285F3F4F78
:1047F000B9010E94623480ED92E09E01285E3F4F35
:10480000B9010E94A53480ED92E09E01285D3F4FE2
:10481000B9010E94E73480E060E00E946D1482E0FC
:1048200091E00E94881480E06BE00E946D148DE09E
:1048300091E00E94881481E060E00E946D14CE0136
:1048400008960E94881481E069E00E946D14CE01F0
:1048500088960E94881410C080E060E00E946D1469
:1048600080E191E00E94881481E060E00E946D1474
:104870008BE191E00E948814E9960FB6F894DEBFB0
:104880000FBECDBFCF91DF910895DF93CF93CDB70A
:10489000DEB72E970FB6F894DEBF0FBECDBF0E94D5
:1048A000B807882309F478C00E94DA0A80E090E013
:1048B000AAE7B4E48B879C87AD87BE876B857C8530
:1048C0008D859E8520E030E04AEF54E40E941F026F
:1048D000DC01CB018F839887A987BA876F817885A0
:1048E00089859A8520E030E040E85FE30E94250456
:1048F00088232CF481E090E09E838D833FC06F81FC
:10490000788589859A8520E03FEF4FE757E40E943C
:10491000C50318164CF56B857C858D859E8520E03A
:1049200030E040E251E40E941F02DC01CB01BC01F7
:10493000CD010E944900DC01CB019E838D830FC015
:1049400088EC90E09C838B838B819C810197F1F7AD
:104950009C838B838D819E8101979E838D838D8126
:104960009E81009769F714C06F81788589859A8543
:104970000E944900DC01CB019E838D838D819E8145
:104980009A83898389819A810197F1F79A83898330
:104990000E94E80A0E94AF072E960FB6F894DEBF79
:1049A0000FBECDBFCF91DF9108951F920F920FB62A
:1049B0000F9211248F93DF93CF93CDB7DEB781E0B1
:1049C00080930303CF91DF918F910F900FBE0F90D3
:1049D0001F901895DF93CF93CDB7DEB7EB970FB647
:1049E000F894DEBF0FBECDBF0E94940A89AF89AD97
:1049F000282F30E03BAF2AAF8AAD9BAD81309105C7
:104A000009F490C02AAD3BAD223031052CF48AADBB
:104A10009BAD009771F0F0C12AAD3BAD223031055E
:104A200009F4F9C08AAD9BAD8330910509F46CC1DE
:104A3000E3C10E94E51388E291E00E94881480E0BF
:104A400090E0AAE7B4E48DAB9EABAFABB8AF6DA975
:104A50007EA98FA998AD20E030E04AEF54E40E948F
:104A60001F02DC01CB0189AB9AABABABBCAB69A934
:104A70007AA98BA99CA920E030E040E85FE30E947E
:104A8000250488232CF481E090E098AB8FA73FC0E9
:104A900069A97AA98BA99CA920E03FEF4FE757E4C9
:104AA0000E94C50318164CF56DA97EA98FA998AD73
:104AB00020E030E040E251E40E941F02DC01CB0123
:104AC000BC01CD010E944900DC01CB0198AB8FA74E
:104AD0000FC088EC90E09EA78DA78DA59EA501979D
:104AE000F1F79EA78DA78FA598A9019798AB8FA7DF
:104AF0008FA598A9009769F77FC169A97AA98BA9A1
:104B00009CA90E944900DC01CB0198AB8FA78FA51F
:104B100098A99CA78BA78BA59CA50197F1F79CA7AB
:104B20008BA76AC10E94E51385E391E00E94881477
:104B300080E090E0AAE7B4E48FA398A7A9A7BAA75A
:104B40006FA178A589A59AA520E030E04AEF54E44A
:104B50000E941F02DC01CB018BA39CA3ADA3BEA3CB
:104B60006BA17CA18DA19EA120E030E040E85FE335
:104B70000E94250488232CF481E090E09AA389A365
:104B80003FC06BA17CA18DA19EA120E03FEF4FE72C
:104B900057E40E94C50318164CF56FA178A589A5A6
:104BA0009AA520E030E040E251E40E941F02DC01BF
:104BB000CB01BC01CD010E944900DC01CB019AA3CD
:104BC00089A30FC088EC90E098A38F8F8F8D98A158
:104BD0000197F1F798A38F8F89A19AA101979AA3C2
:104BE00089A389A19AA1009769F706C16BA17CA14D
:104BF0008DA19EA10E944900DC01CB019AA389A34B
:104C000089A19AA19E8F8D8F8D8D9E8D0197F1F731
:104C10009E8F8D8FF1C00E94E51381E491E00E9488
:104C2000881480E090E0AAE7B4E4898F9A8FAB8F74
:104C3000BC8F698D7A8D8B8D9C8D20E030E04AEFA2
:104C400054E40E941F02DC01CB018D8B9E8BAF8B45
:104C5000B88F6D897E898F89988D20E030E040E89B
:104C60005FE30E94250488232CF481E090E09C8B74
:104C70008B8B3FC06D897E898F89988D20E03FEFB7
:104C80004FE757E40E94C50318164CF5698D7A8DDD
:104C90008B8D9C8D20E030E040E251E40E941F02A9
:104CA000DC01CB01BC01CD010E944900DC01CB013C
:104CB0009C8B8B8B0FC088EC90E09A8B898B8989B9
:104CC0009A890197F1F79A8B898B8B899C89019737
:104CD0009C8B8B8B8B899C89009769F78DC06D8924
:104CE0007E898F89988D0E944900DC01CB019C8BC5
:104CF0008B8B8B899C89988B8F878F85988901975F
:104D0000F1F7988B8F8778C00E94E5138FE491E0CC
:104D10000E94881480E090E0AAE7B4E48B879C8727
:104D2000AD87BE876B857C858D859E8520E030E0D4
:104D30004AEF54E40E941F02DC01CB018F83988765
:104D4000A987BA876F81788589859A8520E030E0C8
:104D500040E85FE30E94250488232CF481E090E082
:104D60009E838D833FC06F81788589859A8520E0F9
:104D70003FEF4FE757E40E94C50318164CF56B85CB
:104D80007C858D859E8520E030E040E251E40E94E4
:104D90001F02DC01CB01BC01CD010E944900DC01F6
:104DA000CB019E838D830FC088EC90E09C838B8326
:104DB0008B819C810197F1F79C838B838D819E81F0
:104DC00001979E838D838D819E81009769F714C022
:104DD0006F81788589859A850E944900DC01CB0125
:104DE0009E838D838D819E819A83898389819A8117
:104DF0000197F1F79A838983EB960FB6F894DEBF9B
:104E00000FBECDBFCF91DF910895DF93CF93CDB784
:104E1000DEB7C854D0400FB6F894DEBF0FBECDBF8A
:104E20008FE08D8F81E08E8F88EE97E098A38F8F33
:104E3000CE014D969E012F5D3F4FB9010E94A534D2
:104E4000CE014D969E012F5C3F4FB9010E94E73481
:104E50000E94E51380E060E00E946D148CE591E013
:104E60000E948814CE0181960E94881481E060E03F
:104E70000E946D1483E691E00E948814CE01C196D1
:104E80000E94881480E090E8ABE3B5E4898F9A8FA4
:104E9000AB8FBC8F698D7A8D8B8D9C8D20E030E03F
:104EA0004AEF54E40E941F02DC01CB018D8B9E8BE4
:104EB000AF8BB88F6D897E898F89988D20E030E027
:104EC00040E85FE30E94250488232CF481E090E011
:104ED0009C8B8B8B3FC06D897E898F89988D20E05C
:104EE0003FEF4FE757E40E94C50318164CF5698D54
:104EF0007A8D8B8D9C8D20E030E040E251E40E9461
:104F00001F02DC01CB01BC01CD010E944900DC0184
:104F1000CB019C8B8B8B0FC088EC90E09A8B898B9C
:104F200089899A890197F1F79A8B898B8B899C895A
:104F300001979C8B8B8B8B899C89009769F714C098
:104F40006D897E898F89988D0E944900DC01CB0193
:104F50009C8B8B8B8B899C89988B8F878F8598896D
:104F60000197F1F7988B8F870E94E51380E060E04E
:104F70000E946D148BE691E00E9488142091D20269
:104F80003091D30200D000D000D0EDB7FEB73196FB
:104F9000CE018F5B9F4F9183808388E791E093835D
:104FA0008283358324830E94D8378DB79EB70696B7
:104FB0000FB6F8949EBF0FBE8DBFCE018F5B9F4F83
:104FC0000E94881481E060E00E946D1483E691E005
:104FD0000E94881480ED92E09E012F5C3F4FB90142
:104FE0000E94E734CE01C1960E94881480E090E8C8
:104FF000ABE3B5E48B879C87AD87BE876B857C85EB
:105000008D859E8520E030E04AEF54E40E941F0227
:10501000DC01CB018F839887A987BA876F81788558
:1050200089859A8520E030E040E85FE30E9425040E
:1050300088232CF481E090E09E838D833FC06F81B4
:10504000788589859A8520E03FEF4FE757E40E94F5
:10505000C50318164CF56B857C858D859E8520E0F3
:1050600030E040E251E40E941F02DC01CB01BC01B0
:10507000CD010E944900DC01CB019E838D830FC0CE
:1050800088EC90E09C838B838B819C810197F1F766
:105090009C838B838D819E8101979E838D838D81DF
:1050A0009E81009769F714C06F81788589859A85FC
:1050B0000E944900DC01CB019E838D838D819E81FE
:1050C0009A83898389819A810197F1F79A838983E9
:1050D000C85BDF4F0FB6F894DEBF0FBECDBFCF91D8
:1050E000DF910895DF93CF93CDB7DEB768970FB602
:1050F000F894DEBF0FBECDBFA5E3B0E0E5E3F0E07E
:10510000808183608C93A4E3B0E0E4E3F0E08081ED
:1051100083608C93A5E3B0E0E5E3F0E080818D7FD0
:105120008C9380E090E0A0EAB0E48D8B9E8BAF8BF7
:10513000B88F6D897E898F89988D2BEA3AEA4AE289
:1051400050E40E941F02DC01CB01898B9A8BAB8B50
:10515000BC8B69897A898B899C8920E030E040E8A2
:105160005FE30E94250488231CF481E0888B91C0B2
:1051700069897A898B899C8920E030E04FE753E484
:105180000E94C50318160CF07BC06D897E898F893B
:10519000988D20E030E04AE754E40E941903DC01D6
:1051A000CB018C879D87AE87BF876C857D858E857B
:1051B0009F8520E030E04AEF54E40E941F02DC01AA
:1051C000CB0188879987AA87BB87688579858A8577
:1051D0009B8520E030E040E85FE30E9425048823BF
:1051E0002CF481E090E09F838E833FC068857985B1
:1051F0008A859B8520E03FEF4FE757E40E94C50377
:1052000018164CF56C857D858E859F8520E030E0F5
:1052100040E251E40E941F02DC01CB01BC01CD0140
:105220000E944900DC01CB019F838E830FC088EC74
:1052300090E09D838C838C819D810197F1F79D8304
:105240008C838E819F8101979F838E838E819F8126
:10525000009769F724C0688579858A859B850E94B7
:105260004900DC01CB019F838E838E819F819B83CC
:105270008A838A819B810197F1F79B838A830FC080
:1052800069897A898B899C890E944900DC01CB015C
:10529000888B8889898389818A95F1F78983A5E339
:1052A000B0E0E5E3F0E080818E7F8C9368960FB6E6
:1052B000F894DEBF0FBECDBFCF91DF910895DF938D
:1052C000CF93CDB7DEB7E0970FB6F894DEBF0FBE31
:1052D000CDBFA5E3B0E0E5E3F0E080818D7F8C9366
:1052E000A4E3B0E0E4E3F0E0808182608C93A5E386
:1052F000B0E0E5E3F0E0808181608C9380E090E0B5
:10530000A0EAB0E48DA79EA7AFA7B8AB6DA57EA518
:105310008FA598A92BEA3AEA4AE250E40E941F02BC
:10532000DC01CB0189A79AA7ABA7BCA769A57AA581
:105330008BA59CA520E030E040E85FE30E942504B7
:1053400088231CF481E088A791C069A57AA58BA564
:105350009CA520E030E04FE753E40E94C5031816F7
:105360000CF07BC06DA57EA58FA598A920E030E04C
:105370004AE754E40E941903DC01CB018CA39DA3EE
:10538000AEA3BFA36CA17DA18EA19FA120E030E0C0
:105390004AEF54E40E941F02DC01CB0188A399A3C9
:1053A000AAA3BBA368A179A18AA19BA120E030E0B8
:1053B00040E85FE30E94250488232CF481E090E01C
:1053C0009F8F8E8F3FC068A179A18AA19BA120E009
:1053D0003FEF4FE757E40E94C50318164CF56CA148
:1053E0007DA18EA19FA120E030E040E251E40E9427
:1053F0001F02DC01CB01BC01CD010E944900DC0190
:10540000CB019F8F8E8F0FC088EC90E09D8F8C8F8B
:105410008C8D9D8D0197F1F79D8F8C8F8E8D9F8D3B
:1054200001979F8F8E8F8E8D9F8D009769F724C077
:1054300068A179A18AA19BA10E944900DC01CB014E
:105440009F8F8E8F8E8D9F8D9B8F8A8F8A8D9B8D48
:105450000197F1F79B8F8A8F0FC069A57AA58BA55D
:105460009CA50E944900DC01CB0188A788A5898FF3
:10547000898D8A95F1F7898FA5E3B0E0E5E3F0E047
:10548000808182608C9380E090E0A0EAB0E48D8B14
:105490009E8BAF8BB88F6D897E898F89988D2BEA13
:1054A0003AEA4AE250E40E941F02DC01CB01898BF8
:1054B0009A8BAB8BBC8B69897A898B899C8920E01C
:1054C00030E040E85FE30E94250488231CF481E07B
:1054D000888B91C069897A898B899C8920E030E02A
:1054E0004FE753E40E94C50318160CF07BC06D898A
:1054F0007E898F89988D20E030E04AE754E40E944D
:105500001903DC01CB018C879D87AE87BF876C8533
:105510007D858E859F8520E030E04AEF54E40E942F
:105520001F02DC01CB0188879987AA87BB87688522
:1055300079858A859B8520E030E040E85FE30E9422
:10554000250488232CF481E090E09F838E833FC064
:10555000688579858A859B8520E03FEF4FE757E492
:105560000E94C50318164CF56C857D858E859F8538
:1055700020E030E040E251E40E941F02DC01CB0158
:10558000BC01CD010E944900DC01CB019F838E83C9
:105590000FC088EC90E09D838C838C819D81019766
:1055A000F1F79D838C838E819F8101979F838E83EA
:1055B0008E819F81009769F724C0688579858A85E7
:1055C0009B850E944900DC01CB019F838E838E81E5
:1055D0009F819B838A838A819B810197F1F79B83BB
:1055E0008A830FC069897A898B899C890E944900C6
:1055F000DC01CB01888B8889898389818A95F1F7C1
:105600008983E0960FB6F894DEBF0FBECDBFCF9171
:10561000DF910895DF93CF93CDB7DEB7E2970FB652
:10562000F894DEBF0FBECDBF8AAB19AAEBC0A5E3CD
:10563000B0E0E5E3F0E080818E7F8C938AA9882337
:1056400044F4A5E3B0E0E5E3F0E0808182608C9370
:1056500007C0A5E3B0E0E5E3F0E080818D7F8C93A7
:10566000A5E3B0E0E5E3F0E0808181608C9380E029
:1056700090E0A0EAB0E48DA79EA7AFA7B8AB6DA558
:105680007EA58FA598A92BEA3AEA4AE250E40E9447
:105690001F02DC01CB0189A79AA7ABA7BCA769A50C
:1056A0007AA58BA59CA520E030E040E85FE30E944E
:1056B000250488231CF481E088A791C069A57AA5F8
:1056C0008BA59CA520E030E04FE753E40E94C50382
:1056D00018160CF07BC06DA57EA58FA598A920E0BB
:1056E00030E04AE754E40E941903DC01CB018CA3AB
:1056F0009DA3AEA3BFA36CA17DA18EA19FA120E01D
:1057000030E04AEF54E40E941F02DC01CB0188A381
:1057100099A3AAA3BBA368A179A18AA19BA120E018
:1057200030E040E85FE30E94250488232CF481E008
:1057300090E09F8F8E8F3FC068A179A18AA19BA125
:1057400020E03FEF4FE757E40E94C50318164CF5E1
:105750006CA17DA18EA19FA120E030E040E251E448
:105760000E941F02DC01CB01BC01CD010E94490057
:10577000DC01CB019F8F8E8F0FC088EC90E09D8F56
:105780008C8F8C8D9D8D0197F1F79D8F8C8F8E8DD9
:105790009F8D01979F8F8E8F8E8D9F8D009769F7BC
:1057A00024C068A179A18AA19BA10E944900DC01C3
:1057B000CB019F8F8E8F8E8D9F8D9B8F8A8F8A8D31
:1057C0009B8D0197F1F79B8F8A8F0FC069A57AA5F2
:1057D0008BA59CA50E944900DC01CB0188A788A568
:1057E000898F898D8A95F1F7898FA5E3B0E0E5E38C
:1057F000F0E080818E7F8C938AA9880F8AAB89A97B
:105800008F5F89AB89A9883008F411CFA5E3B0E098
:10581000E5E3F0E080818E7F8C93A4E3B0E0E4E3E5
:10582000F0E080818D7F8C93A5E3B0E0E5E3F0E0CC
:10583000808181608C9380E090E0A0EAB0E48D8B61
:105840009E8BAF8BB88F6D897E898F89988D2BEA5F
:105850003AEA4AE250E40E941F02DC01CB01898B44
:105860009A8BAB8BBC8B69897A898B899C8920E068
:1058700030E040E85FE30E94250488231CF481E0C7
:10588000888B91C069897A898B899C8920E030E076
:105890004FE753E40E94C50318160CF07BC06D89D6
:1058A0007E898F89988D20E030E04AE754E40E9499
:1058B0001903DC01CB018C879D87AE87BF876C8580
:1058C0007D858E859F8520E030E04AEF54E40E947C
:1058D0001F02DC01CB0188879987AA87BB8768856F
:1058E00079858A859B8520E030E040E85FE30E946F
:1058F000250488232CF481E090E09F838E833FC0B1
:10590000688579858A859B8520E03FEF4FE757E4DE
:105910000E94C50318164CF56C857D858E859F8584
:1059200020E030E040E251E40E941F02DC01CB01A4
:10593000BC01CD010E944900DC01CB019F838E8315
:105940000FC088EC90E09D838C838C819D810197B2
:10595000F1F79D838C838E819F8101979F838E8336
:105960008E819F81009769F724C0688579858A8533
:105970009B850E944900DC01CB019F838E838E8131
:105980009F819B838A838A819B810197F1F79B8307
:105990008A830FC069897A898B899C890E94490012
:1059A000DC01CB01888B8889898389818A95F1F70D
:1059B0008983A5E3B0E0E5E3F0E080818E7F8C93FE
:1059C000A4E3B0E0E4E3F0E0808182608C93E296AF
:1059D0000FB6F894DEBF0FBECDBFCF91DF91089513
:1059E0000F931F93DF93CF93CDB7DEB7CB54D04047
:1059F0000FB6F894DEBF0FBECDBFFE01E55BFF4FD3
:105A00008083FE01E65BFF4F1082A4E3B0E0E4E395
:105A1000F0E080818D7F8C93FE01E75BFF4F108269
:105A2000D4C1A5E3B0E0E5E3F0E080818E7F8C9304
:105A3000FE01EB5BFF4F80E090E0A0EAB0E48083E2
:105A40009183A283B3838E010F5B1F4FFE01EB5B3B
:105A5000FF4F60817181828193812BEA3AEA4AE2A9
:105A600050E40E941F02DC01CB01F8018083918386
:105A7000A283B383FE01EF5BFF4F6081718182815E
:105A8000938120E030E040E85FE30E942504882312
:105A900034F481E0FE01E05CFF4F80839DC0FE0195
:105AA000EF5BFF4F608171818281938120E030E064
:105AB0004FE753E40E94C50318160CF07EC0FE01A8
:105AC000EB5BFF4F608171818281938120E030E048
:105AD0004AE754E40E941903DC01CB018CAF9DAF6F
